:020000040800F2
:1000000040930020450100087F250008AD0F00083F
:100010007D25000827070008613200080000000065
:10002000000000000000000000000000C12F0008D8
:100030009F07000800000000E525000809300008BF
:100040005F0100085F0100085F0100085F01000810
:100050005F0100085F0100080D0900085F0100084A
:100060005F0100085F0100085F0100085F010008F0
:100070005F0100085F0100085F0100085F010008E0
:100080005F0100085F0100085F0100085F010008D0
:100090005F0100085F0100085F0100085F010008C0
:1000A0005F0100085F0100085F0100085F010008B0
:1000B0005F0100085F0100085F0100085F010008A0
:1000C0005F0100085F0100085F0100085F01000890
:1000D0005F010008FD3000085F0100085F010008B3
:1000E000410900085F0100085F0100085F01000886
:1000F0005F0100085F0100085F0100085F01000860
:100100005F0100085F0100085F0100085F0100084F
:100110005F0100085F0100085F0100085F0100083F
:100120005F0100085F0100085F0100085F0100082F
:10013000DFF80CD000F03AFA00480047D568000814
:10014000409300200648804706480047FEE7FEE748
:10015000FEE7FEE7FEE7FEE7FEE7FEE7FEE7FEE777
:100160000D30000831010008D2B201E000F8012B87
:10017000491EFBD270470022F6E710B513460A4627
:1001800004461946FFF7F0FF204610BD421C10F848
:10019000011B0029FBD1801A7047034611F8012B7F
:1001A00000F8012B002AF9D11846704730B50B46EC
:1001B000014600202022012409E021FA02F59D4297
:1001C00005D303FA02F5491B04FA02F52844151E6B
:1001D000A2F10102F1DC30BD2DE9F05F05460020FF
:1001E00092469B4688460646814640241BE02846A8
:1001F00041464746224600F0FAF953465A46C01A8D
:10020000914110D311461846224600F0E1F92D1A0B
:1002100067EB01084F4622460120002100F0D8F983
:1002200017EB00094E41201EA4F10104DFDC484613
:1002300031462A464346BDE8F09F2DE9FE4F8046F1
:1002400081EA0300C00F0C46009021F0004123F02A
:100250000045B8EB0200A94105D240462146904630
:100260001C460B46024623F00040104347D0270DA2
:10027000C7F30A00C3F30A510290401A01904028C4
:100280006BDAC3F3130040F4801B0098924620B150
:100290000023D2EB030A63EB0B0B01985946C0F124
:1002A0004002504600F094F906460D465046594625
:1002B000019A00F0ACF910EB08006141002487EAD4
:1002C000115284EAE7731A4340D0009A62B3019A4C
:1002D000012A4FEA075215DC001B61EB02014FF0C7
:1002E000004202EA0752CDE90042001C41F58011AC
:1002F00032462B4600F0ACF903B0BDE8F08F404623
:100300002146F9E7001B61EB0201001C41F5801357
:1003100000185B412018A2F5001747EB030140EAE3
:10032000D570B6196D4111E06D084FEA360645EA01
:10033000C0754FEA0752001B61EB0201001C41F53A
:10034000801149084FEA30000019514132462B46CE
:1003500003B0BDE8F04F00F06CB9009801224000F6
:100360000023D0EB020263EBE073009821464FEAD2
:10037000E074B8EB000061EB0401E9E783F00043AF
:100380005BE781F0004158E72DE9FE4F81EA030465
:1003900004F0004421F0004100944FF0000B23F0E2
:1003A000004350EA01045ED052EA03045BD0C3F379
:1003B0000A54C1F30A552C44A4F2F3340194A0FB6F
:1003C0000254C1F3130141F48011C3F3130343F446
:1003D000801301FB024400FB034E840A970A44EA9F
:1003E000815447EA8357A4FB076802958D0A05FBF1
:1003F00007854FEA932C04FB0C542705029D4FEA16
:10040000065847EA1637B5EB08056EEB070C870E62
:10041000920E47EA811742EA8312A7FB0201B6EB6C
:100420000B0164EB00042B0D43EA0C335E1844EB24
:100430001C50DA465146E7FB0201C5F313044FEAAC
:100440000B3343EA14534FEA0432019C43EA060398
:10045000A4F10C040294009CCDE900B400F0F8F87B
:1004600003B0BDE8F08F00200146F9E72DE9F04D1B
:1004700081EA030404F0004B21F0004514464FF0DC
:10048000000A23F0004150EA050220D054EA01029C
:100490001DD0C5F30A570246C5F31303C1F3130079
:1004A000C1F30A5640F4801543F48013A7EB060805
:1004B000101BD64608F2FD3873EB050002D308F195
:1004C000010801E092185B41B8F1000F03DA002047
:1004D0000146BDE8F08D00204FF4801106468446A9
:1004E0000EE0171B73EB050705D3121B63EB050327
:1004F00006434CEA010C49084FEA300092185B4170
:1005000050EA0107EDD152EA030012D082EA04005A
:1005100083EA0501084305D0101BAB4106D2012236
:10052000002306E000224FF0004302E06FF00102DA
:1005300053101AEB06004CEB085110EB0A0041EB8C
:100540000B01BDE8F04D00F074B8C1F30A52C1F3DD
:10055000130140F2FF3341F480119A4202DA002085
:100560000146704740F233439A42A2F2334202DC22
:10057000524200F03CB800F02BB8000030B5041E29
:1005800071F1000404DB4FF00044404264EB0101D0
:10059000141E73F1000405DB1C464FF00043524269
:1005A00063EB0403994208BF904230BD064C074DEF
:1005B00006E0E06840F0010394E807009847103433
:1005C000AC42F6D3FFF7B8FD94650308B4650308A1
:1005D000202A04DB203A00FA02F100207047914003
:1005E000C2F1200320FA03F3194390407047202AF8
:1005F00004DB203A21FA02F00021704721FA02F3CD
:10060000D040C2F120029140084319467047202A89
:1006100006DBCB17203A41FA02F043EAE07306E02A
:1006200041FA02F3D040C2F120029140084319463A
:10063000704710B5141E73F1000408DA401C41F134
:10064000000192185B411A4301D120F0010010BD56
:100650002DE9F04D92469B4611B1B1FA81F202E0CC
:10066000B0FA80F220329046FFF7B2FF04460F4600
:1006700040EA0A0041EA0B0153465A46084313D0A8
:10068000114653EA010019D0C8F140025046FFF765
:10069000AEFF05460E46504659464246FFF798FFC4
:1006A000084305D0012004E020463946BDE8F08D1E
:1006B0000020054346EAE0762C4337430A98630559
:1006C000E40AA0EB08000022FD0A44EA47540A307D
:1006D00002D500200146E9E7010510196941DDE96D
:1006E000084500196941BDE8F04DA2E730B58C1806
:1006F00010F8012B12F00F0301D110F8013B120981
:1007000006D110F8012B03E010F8015B01F8015B42
:100710005B1EF9D101E001F8013B521EFBD1A14261
:10072000E6D3002030BDFEE710B502684FF6FE7339
:10073000002942F0010408BF02EA0304046010BD6E
:10074000044A010F61F38A221168084018BF012092
:10075000704700BF000002402DE9F043026847F6F1
:10076000F073D1E90258D1E90479D1E90646D1E91B
:1007700000CE9A432A43D1E90853896A2A433A436F
:1007800042EA0902224332431A4311430160C0F88E
:100790000480C0F808C0C0F80CE0BDE8F0837047E2
:1007A0002DE9F047DFF85C904FF0000ABAF1020F34
:1007B00008BFBDE8F0874FF00008B8F1200F1ED049
:1007C0000A2006F073FF4FEA88070026042E13D094
:1007D000B81909EB8A2100240D18082C0AD02878B2
:1007E000A04000064FF02A0058BF202006F05EFF10
:1007F0000134F2E70136E9E708F10108DDE70AF123
:10080000010AD3E7300000207CB508200121012433
:1008100001F002FF0E48574D01AE314601902846C7
:1008200000F038FB0B4831460190284600F032FBBF
:1008300000F004FFA02000F0A1FD00F041FF0546FC
:1008400000F012FF15B100F00FFF002420467CBD20
:1008500040000314800003142DE9F84F15460E469E
:10086000834600240FF268080FF278090FF2880A15
:10087000AC421FD0A4B900F0F7FE0027632F1ED8AA
:1008800000F0DCFEA02000F079FD013700F018FF39
:100890000028F3D1F0B200F071FD00F011FF68B94B
:1008A0001BF8040000F06AFD00F00AFF20B90134D3
:1008B0000136DDE7012406E0D04600E0C8464046A8
:1008C00006F0FAFE002400F0CFFE2046BDE8F88FC7
:1008D000454550524F4D20B4EDCEF3203420210D2C
:1008E00000000000454550524F4D20B4EDCEF3209E
:1008F0003520210D00000000454550524F4D20B4D9
:10090000EDCEF3203720210D0000000010B50120AE
:1009100000F038F860B1094C0121204600F014FBCA
:10092000012805D104F580602021032204F04AFF4C
:100930000120BDE8104000F01FB800BF00080140D2
:1009400010B54FF4005000F01DF860B1094C4FF4A1
:10095000005104F5806000F0F7FA20B9204620210C
:10096000032204F02FFF4FF40050BDE8104000F0C8
:1009700003B800BF000C014001490860704700BF88
:10098000140401401C490A68024018BF0122496949
:10099000084018BF01201040704700BF10B5827991
:1009A0001549E2B102680B6893430B604B689343AF
:1009B0004B6003790B431C6822431A6002688B6802
:1009C00093438B60CB689343CB60407910280ED162
:1009D000886810438860C8681043C86010BD0279F9
:1009E000006811430A6822EA0000086010BD08434D
:1009F00001681143016010BD0004014008490A6804
:100A000022F010020A600A6810430860704700BFB5
:100A100003490A6802F0380210430860704700BFBB
:100A200000200240B0B54FF02042064C002952F899
:100A3000203043F0010508BF03EA040542F82050C6
:100A4000B0BD00BFFEFF0F00F0B500F10807D0E910
:100A500000C1C269F8CF194321432943314300F152
:100A60002006394311437CCE1143194321432943C6
:100A700041EA06024FF0204141F82C208268082A02
:100A800006D1026851F8223043F0400341F8223089
:100A9000426BD0F800C092E8F800D2E9051243EAB0
:100AA000041343EA052343EA064343EA075343EAB0
:100AB000016111430E4A42F82C10C16AB1F5804F12
:100AC0000FD1816B91E81C00D1E90456896942EA93
:100AD000031242EA042242EA055242EA0662114344
:100AE00001E06FF070410068024A42F82010F0BD4A
:100AF000040000A0040100A010B50021002204465B
:100B000003F044FBCD490122087000202146BDE8D6
:100B1000104003F013BE00BF70B5ADF5806D6D469B
:100B20000C4606464FF480612846FFF724FB1DA0C3
:100B3000294606F029F9284D31461322284603F0AC
:100B400023FE0146254E317031B125A006F01CF977
:100B500029A006F0B1FD1EE0334806F0ADFDE968BE
:100B6000284603F0B4F93070A8B92846214603F0AE
:100B7000D9FE2846002103F0AAF93346EA686946FF
:100B800003F8040B284603F0E3FF307018B9274838
:100B9000694606F0F9F8104803F010F968460DF5BB
:100BA000806D70BD0A2A2A2A2A2A2A2A2A20CEC41F
:100BB000BCFE2573B6A8CEBBBACDB8F1CABDBBAFDB
:100BC000D0B4C8EBB9A6C4DCB2E2CAD4202A2A2A1F
:100BD0002A2A2A2A2A0D0A00EC1800205808002088
:100BE000212120B4F2BFAACEC4BCFECAA7B0DCA3A8
:100BF000BA25640A00000000212120BBF2D0EDD00C
:100C0000E8D2AAD4D9B4CED4CBD0D0A1B0466174A6
:100C10004673D2C6D6B2D3EBB6C1D0B4B2E2CAD410
:100C2000A1B1B9A4B3CC0000B70F0208970F020816
:100C3000F0B589B0054619A014460E4606F03CFDF5
:100C40006846314603F03CFE214F387080B121A048
:100C5000314606F099F8304603F0E9F938706846F5
:100C6000314603F02DFE387060B1014623A010E03C
:100C70002A4806F021FD684603F0AEF83870204699
:100C800004F024F92846214604F03CF80146387067
:100C9000234806F079F809B0F0BD00BF0A2A2A2AD5
:100CA0002A2A2A2A2A2A2A20C4BFC2BCB4B4BDA830
:100CB000BACDD6D8C3FCC3FBB9A6C4DCB2E2CAD451
:100CC000202A2A2A2A2A2A2A2A2A2A0D0000000053
:100CD00058080020212120B4F2BFAAC4BFC2BC25FD
:100CE0007320CAA7B0DCBFAACABCB3A2CAD4B4B42A
:100CF000BDA8D0C2B5C4C4BFC2BC0A00212120B463
:100D0000B4BDA8D0C2B5C4C4BFC2BCBBB9CAC7CAEF
:100D1000A7B0DC28256429200A0000007E10020804
:100D20007B0F0208BCB5044626A006F0C5FC32A025
:100D300006F0C2FC40482146012203F0FFFC3F4D73
:100D4000287070B101460D280FD13E4806F0B4FC62
:100D500020460021002203F019FA287068B13AA059
:100D600007E0374806F0A8FC16E03E4806F00CF80D
:100D70003D4806F0A1FC2878BCBD384806F09CFC34
:100D800000202146012203F0D9FC28702A48214680
:100D9000012203F0D3FC2870694601AA204603F023
:100DA00024F8287001986FF007024169807802EBFF
:100DB0008101009A414350438200294805F0E4FF35
:100DC0000020BCBD0A2A2A2A2A2A2A2A2A2A2A20BC
:100DD000CDE2B2BF535049466C617368B9D2D4D8E2
:100DE000CEC4BCFECFB5CDB3202A2A2A2A2A2A2A6D
:100DF0002A2A2A0D0000000020D4DACDE2B2BF5327
:100E0000504920466C617368B9D2D4D8CEC4BCFEB8
:100E1000CFB5CDB3A3ACCEC4BCFECFB5CDB3B9D2A4
:100E2000D4D8CAB1BBE1B6D4535049C9E8B1B8B3BC
:100E3000F5CABCBBAF0D00001029002058080020E7
:100E400058100208DB0F0208A1B7B8F1CABDBBAF4A
:100E5000CAA7B0DCA1A3200D0000000038100208D2
:100E6000470F0208210F020812100208B0B50C2229
:100E7000074C0F2302EA810201F0FC010D59934057
:100E8000904025EA03030B510A5910430851B0BDA5
:100E9000080001402DE9F04391F8039009F00F0894
:100EA0005FEAC96344BF8B7848EA030809880B06E8
:100EB00021D0046800254FF0010E4FF00F0C0027E1
:100EC000082F17D00EFA07F30B4210D00CFA05F2D8
:100ED00008FA05F6B9F1480F24EA020242EA0604CC
:100EE00004D0B9F1280F08BF436100E00361043565
:100EF0000137E5E70460B1F5807F23D3446800251E
:100F00004FF4807E4FF00F0C0027082F19D00EFAF7
:100F100007F606EA0102B24210D10CFA05F308FA0C
:100F200005F2B9F1480F24EA030343EA020404D0AE
:100F3000B9F1280F08BF466100E0066104350137AA
:100F4000E3E74460BDE8F0838068084018BF0120F3
:100F50007047C068084018BF012070474161704762
:100F60000161704770B50E4E04460D46307818B9D1
:100F700001F08EFC01203070E8B2290A5E2201FBEC
:100F800002000849202201EB0020082190FBF1F02B
:100F900005490144204601F02BFD002070BD00BF33
:100FA000900800200041C4FF00301800FEE70288CE
:100FB000002942F4806308BF22F4806303807047F5
:100FC000828A008B60F3174202EA0100401AB0FAED
:100FD00080F040097047C943818270470288002928
:100FE00042F0010308BF22F00103038070470000B4
:100FF0001CB5CC4C0020ADF806002046012100F0C5
:101000001DF82046142100F0A3F8ADF80600204694
:10101000A021002200F0A9F92046142100F098F840
:101020008007EAD504492046FFF7D5FF2046012175
:10103000BDE81C4000F00BB8000400100288002935
:1010400042F4807308BF22F48073038070470288E3
:10105000002942F4007308BF22F400730380704734
:1010600082B00022019200920090080F019021F0BE
:101070007F4001990029009903BF18310091000CAD
:10108000143118BF009100990968084018BF012069
:1010900002B0704770B586B00446868801A80D4638
:1010A00001F0E4FA2748039926F03F02264BB1FBF2
:1010B000F0F00243A280228822F0010222802A68F6
:1010C0009A4208D85200B1FBF2F14FF6FC7211427D
:1010D00008BF04211FE0EB884BF6FF76B34204D132
:1010E00002EB4202B1FBF2F105E019235A43B1FBD6
:1010F000F2F141F480414FF4967250434FF47A720A
:10110000B0FBF2F00A466FF31F32B2FA82F25209D4
:1011100011430E4A114301302084A1834FF6F5316B
:10112000208840F00100208020880840A9880843DA
:10113000698908432080A88929890843208106B04D
:1011400070BD00BF40420F00A08601000080FFFF7D
:1011500081B000220092009000980844009000980E
:10116000008801B0704700002DE9F84F824668A062
:101170001446884606F0A0FA694F6A4E4FF4404084
:10118000388030464FF40031FFF76AFF30B13888BD
:10119000411E00283980F4D1092092E03046012117
:1011A000FFF74CFF604D4FF4C04038803046294671
:1011B000FFF706FF30B93888411E00283980F5D185
:1011C0000A207EE03046A0210022A94600F0CDF89A
:1011D000564D4FF4C040388030462946FFF7F0FEA8
:1011E00030B93888411E00283980F5D10B2068E0DD
:1011F00030460121FFF7F2FE3046414600F0E8F8A4
:101200004FF4C04005F102084D4638803046414653
:10121000FFF7D6FE30B93888411E00283980F5D155
:101220000C204EE030460121FFF708FF4FF4C0408C
:10123000388030462946FFF7C3FE30B93888411E52
:1012400000283980F5D10D203BE03046A021012255
:1012500000F08BF84FF4C04005F1010838803046AB
:101260004146FFF7ADFE30B93888411E002839806D
:10127000F5D10E2025E005F13F084FF440495546D1
:10128000A3461FFA8BF0012801D020B936E0304682
:101290000021FFF78CFEA7F8009030464146FFF78B
:1012A0008FFE28B93888411E00283980F5D107E023
:1012B000304600F057F805F8010BABF1010BE0E701
:1012C000032000F0DFF91AA006F0F6F91D4E1E4FBC
:1012D0000025AC420DD01AF80510304605F054FD3B
:1012E00005F00F000F2802D1384605F04DFD0135FD
:1012F000EFE716A0BDE8F84F06F0DEB93046012151
:10130000FFF7A5FE30460121FFF751FEDBE700BFE6
:101310004932435FCAFDBEDDBCECB2E220000000F2
:1013200092080020005400400100030082000700E2
:101330000A4932435FCAFDBEDDB6C1C8A1CDEAB1DC
:10134000CF2000001D0F0208020F02080A2D2D2DCC
:101350003E4932435FCAFDBEDDBCECB2E2CDEAB32A
:10136000C9000000008AC0B2704741F00103002AA2
:1013700008BF01F0FE030382704700002DE9F84327
:10138000BF4DDB4F044600264FF080084FF0400968
:10139000072E18D860B20121B0F1FF3F4FF03200A4
:1013A000CCBFC5F80480C5F80080B84732200121C1
:1013B000C5F80090B84732200121C5F80490B8471D
:1013C00001366400E4E780202860BDE8F88300BFB0
:1013D0000182704780B5FFF717FA00B180BD8648DB
:1013E000BDE8804006F068B92DE9FE4F91460E46F3
:1013F000834600F023F9A020FFF7C0FF00F060F95A
:1014000008B143A010E03046FFF7B8FF00F058F9EC
:1014100008B144A008E000F011F9A120FFF7AEFFE9
:1014200000F04EF950B144A006F046F900F01CF966
:1014300045A006F041F90120BDE8FE8F464EA9F116
:10144000010000274025CDF8049002904F4544D07C
:101450004FF0000A4FF00008BAF1070F13D83220FE
:101460000121356004F04AFE56F8089C3220012123
:10147000756004F043FE5FFA89F00AF1010AC009C1
:1014800040EA4808E8E702980BF80780B8420ED116
:101490008020324C012130603220A04732200121CF
:1014A0003560A047322001217560A04711E02B4C28
:1014B0004FF0800932200121C6F80490A047322065
:1014C00001213560A047322001217560A047C6F890
:1014D0000090DDF804900137B8E700F0C5F820A0CF
:1014E00006F0EAF822A006F0E7F8524E524F002428
:1014F000A145A0D01BF80410304605F045FC04F0CF
:101500000F000F2802D1384606F0D6F80134EFE775
:10151000454550524F4D20B4EDCEF3203120210DE2
:1015200000000000454550524F4D20B4EDCEF32051
:101530003220210D00000000454550524F4D20B48F
:10154000EDCEF33320210D00B6C1454550524F4D2D
:10155000B4EDCEF3210D0000100C0140FD60000839
:101560000AB6C1454550524F4DB3C9B9A6210D0029
:10157000454550524F4DB6C1C8A1CAFDBEDDCAFD9A
:10158000BEDDBCECB2E9200D000000002DE9F04109
:1015900014460E460546FFF737F928B3284631466C
:1015A0002246FFF759F908B318A006F085F89620EF
:1015B000012104F0A3FD19A006F07EF81D4EDFF80E
:1015C00078800027BC420CD0E95D304605F0DCFB9A
:1015D00007F00F000F2802D1404606F06DF80137E2
:1015E000F0E70020BDE8F081034800E003A006F02A
:1015F00063F80120BDE8F081050F0208D0B445452D
:1016000050524F4DB4EDCEF3210D0000D0B44545FE
:1016100050524F4DB3C9B9A6210D00004545505257
:101620004F4DD0B4C8EBCAFDBEDDBCECB2E9BCEC9A
:10163000B2E90D001C0F02087C100208F8B5104C2E
:101640002B4F402580263220012125602660B84797
:10165000322001216660B8476560322001213A4698
:10166000BDE8F840104700BFB0B5054C80254020CC
:10167000012165602060322004F040FD2560B0BD8E
:10168000100C014010B50446044805A104F0EFFD1C
:101690000AA02146BDE8104005F076BB00380140A5
:1016A00049324320B5C8B4FDB3ACCAB121657272EA
:1016B0006F72436F6465203D0000000025640A00DE
:1016C000F8B50A4C80200A4D0121A0603220A847BD
:1016D000402632200121A660A84727683220012138
:1016E000E660A847C7F3C010F8BD00BF080C014072
:1016F000FD6000082DE9F84F054656A014468846BF
:1017000005F0DAFFFFF774FC564E574F4FF4404098
:10171000308038460121FFF7A3FC30B13088411EEC
:1017200000283180F5D104205DE038460121BB4618
:10173000FFF784FC4D4F4FF4404030805846394607
:10174000FFF73EFC30B93088411E00283180F5D1CA
:10175000052048E05846A0210022FFF706FE4FF47E
:101760004040308042488146871C58463946FFF742
:1017700027FC30B93088411E00283180F5D1062081
:1017800031E0584641465F46FFF722FE4FF44040A5
:10179000308038464946FFF713FC30B93088411E87
:1017A00000283180F5D107201DE009F104074FF42E
:1017B000C048A946A2465FEA0A4045D019F8011B75
:1017C0005846AAF1010AFFF703FEA6F80080584622
:1017D0003946FFF7F5FB0028EDD13088411E00287F
:1017E0003180F4D10820FFF74DFF274EDFF89C80B1
:1017F0000027B8B2A0420DD215F8011B304605F003
:10180000C3FA07F00F000F2802D1404605F0BCFADA
:101810000137EEE717A005F04FFFFFF7E9FB1A4E7F
:10182000DFF868800027BC4208BFBDE8F88FE95D9B
:10183000304605F0A9FA07F00F000F2802D1404604
:1018400005F0A2FA0137EEE758460121FFF7FFFB4A
:10185000CBE700BF4932435FD0B4C8EBCAFDBEDD61
:101860002000000092080020005400400100030006
:10187000800007000A4932435FD0B4C8EBCAFDBEFE
:10188000DDCDEAB3C92000001D0F0208020F0208D7
:101890000146044800294FF0400108BFFFF760BB34
:1018A000FFF75CBB00200140B0B51C46154600F0B8
:1018B0007BFD464904FB05F04988BDE8B04000F0D7
:1018C0007DBB00BF81B00090009810B10098013836
:1018D000F9E701B0704700002DE9F04389B01646E2
:1018E0000D46074600F078FB04463846294610228C
:1018F000102300F059FD2C2000F0BAFD0DF1040872
:1019000031464046FFF72EFB304F4FF00009B9F14A
:10191000100F19D04FEA490118F8190000260131BB
:1019200018F8011041EA0025102E0AD005FA06F039
:101930000004388858BF204680B200F09DFD013673
:10194000F2E709F10109E2E709B0BDE8F08300BF61
:101950002DE9F04790460E46074600F03DFB044651
:101960009E4831460068B0F80490C588D0F800A0C1
:1019700038464A462B4600F017FD2C2000F078FD33
:101980004FF6E07005FB09F14FF000094044C1F348
:10199000C70880B208FB00A6DFF8DCAB5FFA89F766
:1019A000B84598BFBDE8F0870025082D0BD0F05D45
:1019B000A8400006BAF8000058BF204680B200F0E8
:1019C0005BFD0135F1E709F10109E7E78008002037
:1019D0002DE9F84FDFF894ABDFF8908ADFF8889AAA
:1019E0008B46054600269BF8002012B3DAF800105B
:1019F000B0B28B88C9881844B8F80030984288BFC4
:101A00000D44AFB2B9F800400F44A74288BF00258B
:101A1000A9B2984288BF0026A74288BF0026B0B26C
:101A2000FFF796FFDAF800000BF1010B80880644FF
:101A3000D9E7BDE8F88F00BF2DE9F84FDFF82C8B10
:101A4000DFF8289ADFF820AA8B46054600269BF887
:101A50000020002A41D0B0B27E2A20D8D8F8001049
:101A60008B88C9881844B9F80030984288BF0D4463
:101A7000AFB2BAF800400F44A74288BF0025A9B210
:101A8000984288BF0026A74288BF0026B0B2FFF761
:101A90005FFFD8F800008088064401201BE0B9F8F9
:101AA00000201030904288BF1035A9B2BAF800303B
:101AB0001031994288BF002588BF0026A9B2904204
:101AC00088BF0026BBF80020B0B212BA120CFFF794
:101AD00003FF103602208344B9E7BDE8F88F00BF4A
:101AE0002DE9F041DFF884896E4F14460D46064615
:101AF0002078E0B1B1B2B8F8000001F110028242E2
:101B000088BF1035A9B23B881031994288BF0025A3
:101B100088BF0026A9B2824288BF002634F8022B73
:101B2000B0B212BA120CFFF7D7FE1036E0E7BDE8EC
:101B3000F08100BF2DE9F84FDFF8308ADFF82C99EB
:101B4000DFF824A993460D4606469BF80020002A9C
:101B500041D0B0B27E2A20D8D8F800108B88C9882E
:101B60001844B9F80030984288BF0D44AFB2BAF8B3
:101B700000400F44A74288BF0025A9B2984288BF01
:101B80000026A74288BF0026B0B2FFF7E1FED8F8D2
:101B900000008088064401201BE0B9F800201030C6
:101BA000904288BF1035A9B2BAF80030103199427E
:101BB00088BF002588BF0026A9B2904288BF0026B2
:101BC000BBF80020B0B212BA120CFFF785FE103637
:101BD00002208344B9E7BDE8F88F00BF240000204D
:101BE0002DE9F04F8BB0DDF850B01C4692460E4602
:101BF00007464FEA520815469BF8000000284CD0D3
:101C0000A9B2BAB2274D1144254A1288914288BF21
:101C10002644B3B22D882344AB4284BF002600275C
:101C2000914288BF0027812814D3BBF8000003AD80
:101C300000BA010C2846FFF795F901201021524601
:101C4000234600950290102000F01AFC4FF0020984
:101C5000554615E0144B20380025C0B2029519688E
:101C60009A88DB88584323465043424601EBD00014
:101C700018210090102000F003FC4FF001094546A8
:101C80000A48B1B22A462346009015980190B8B28E
:101C900000F00EF82F44CB44AEE70BB0BDE8F08F58
:101CA00006000020080000200C0000203F4B002010
:101CB0002DE9F84F994615468846074600F08CF9FD
:101CC0000646384641462A464B4600F06DFB2C201E
:101CD00000F0CEFBDDE90A7ADFF89CB84FF000088F
:101CE000C84508BFBDE8F88F0024A5420AD0385D7A
:101CF000BBF80010504508BF314688B200F0BCFB6D
:101D00000134F2E72F4408F10108E9E72DE9F04F2B
:101D10008DB00C910146032016464FF00009019347
:101D2000A0EB4202099133B20FFA89F098420A936C
:101D300000F3AC80019809EB01030492CDE902693C
:101D400000284CD00C980893A0EB09024844069058
:101D5000A1EB0900079205900A990FFA89F08842D1
:101D60007CDC0C98169DDFF82CA148442A4686B2EC
:101D700098B231460B90D047059831462A4687B233
:101D80003846D047DDF824802A46A8EB090084B203
:101D9000069886B220463146D04707982A461FFA51
:101DA00080FB20465946D0470C982A46A0EB0900F4
:101DB00084B238462146D0470B9821462A46D04760
:101DC00009EB080059462A4684B22046D0472046EF
:101DD00031462A46D047089B09F10109BCE7DDF8E6
:101DE00030B0DDF858802B4F8A4606EB0B00424698
:101DF00084B298B221460B90B847AAEB09004D4631
:101E0000214642461FFA80F94846B847AAEB060029
:101E10003C46424687B205EB0B0081B238460A9138
:101E2000A047ABEB0500424685B238462946A0479D
:101E3000ABEB0600424687B248463946A0470B98AE
:101E400039464246A04706EB0A002946424686B27A
:101E50003046A0470A9930464246A047049ADDF82A
:101E60000C9010B209F10109B0F1FF3F07DD029EAD
:101E70000A21A9EB0600013E01EB800003E00620E9
:101E8000029E00EB8900099902444CE70DB0BDE8C1
:101E9000F08F00BF3D2400082DE9FE4F5B1A054678
:101EA0000C461846002BA2EB050818BF4FF0FF3078
:101EB000C8BF01200190B8F1000F404618BF4FF095
:101EC000FF30C8BF0120009048BFC8F10008002BB8
:101ED00000D55B421F4698454FF000094FF0000ABD
:101EE0004FF0000BC8BF4746781C029002991FFABA
:101EF00089F0814238BFBDE8FE8F0C9AA8B2A1B22A
:101F00001E4600F09BFA0BEB06000199334609F1DF
:101F10000109B842C8BF0C440AEB0801009EB9424F
:101F2000C8BF3544B0EB070BD8BF8346B1EB070AF7
:101F3000D8BF8A46DAE700002DE9F843054608983D
:101F40001E4617460C4668B1284621463A46334697
:101F500000F02AFA174906FB07F00988BDE8F843A4
:101F600000F02CB8E819DDF82480DFF84C90214609
:101F70002346013887B22846CDF800803A46C84744
:101F8000A0193A46CDF80080013886B2284631467D
:101F90003346C847284621462A463346CDF80080B6
:101FA000C847384621463A463346CDF80080C847F0
:101FB000BDE8F88380080020991E0008B0B50546EA
:101FC0002C200C4600F054FA25B1204600F054FABB
:101FD000013DF9E7B0BD0000B0B5012200F02AFADA
:101FE0002E2000F045FA084DA847A8470446A84708
:101FF00004F4784141EAD024A8476FF01F0101EAB8
:1020000050102044B0BD00BFFD23000807283AD877
:1020100010B51D4910F001024FF036034FF0F002E9
:10202000087008BF4FF4A0728A804FEA40104FF446
:10203000A07200F1080008BFF0224A804FF0D84299
:1020400013804FF0DA4318802A2010800020188077
:1020500018804C88013CA4B2240A1C804C88013CA6
:10206000E4B21C802B2414801880188088880138E2
:1020700080B2000A188088880138C0B218802C20ED
:102080001080BDE810407047040000202DE9F04F9B
:1020900097B04FF4B0700121012600F0BDFABB48A3
:1020A000BB4D08ACBB4F214608902846B8474FF4BB
:1020B00000402146ADF820002846B8472846214672
:1020C000ADF82060B84702202146ADF82000284630
:1020D000B847802005F580662146ADF820003046DF
:1020E000B8474FF4807930462146ADF82090B84784
:1020F0004FF4007A30462146ADF820A0B8474FF49F
:10210000806830462146ADF82080B8474FF4006023
:102110002146ADF820003046B8474FF4805B30468A
:102120002146ADF820B0B8474FF400502146ADF835
:1021300020003046B8474FF480402146ADF82000DB
:102140003046B8474FF400402146ADF820003046F5
:10215000B84728462146ADF82090B8472846214682
:10216000ADF820A0B84728462146ADF82080B847F2
:102170008948214608902846B8474FF0200828464D
:102180002146ADF82080B84705F540652146ADF8F9
:1021900020B02846B84704202146ADF8200030463C
:1021A000B8477E48214608902846B8477C482146D3
:1021B00008902846B8474FF48070012100F014FAC7
:1021C0004FF0805000244FF006094FF0010A0790AD
:1021D00001A8CDF80C90CDF804A00694CDE90444F4
:1021E00002941690CDE914400820CDE91244CDE9BF
:1021F000104BCDE90E444FF0100B0C940A9008A838
:10220000CDF82CB0CDE90894FEF71EFC0620012184
:10221000FEF708FC00F0F6F80120FFF739FB4FF05D
:10222000D846CF204FF0DA4730214FF0030E4FF061
:10223000390CC023C525E122308081203C803880C4
:102240003980ED213180642139801221A7F800E026
:1022500039803880E820B621308085203880782089
:10226000A7F800B03880CB2030802C20A7F800C021
:10227000388034203C80388002203880F72030803D
:10228000EA20A7F800804FF011083080B1203C8090
:102290003C8030801B203C80388031800A2139808E
:1022A000A2213980338035233B80C1233380A7F8B6
:1022B00000803580452509233D803D80C725358038
:1022C0003980F22126253180E0213C803580A7F835
:1022D00000A04FF0170A31800F2139803D8024255E
:1022E0003D800B253D800E253D8054253B803D8063
:1022F000A8253D8046253D800C253D80A7F800A0FF
:102300003B80072339803B803C80328019223C800F
:102310003A8038800420472238802A20A7F800B06D
:102320003B8038803A803022A7F800C0A7F800E050
:10233000A7F80090A7F800903A8038223A803980B8
:1023400036213180C82139803080EF203C803C80AC
:102350003C8038802B20308001203C803C803880BD
:102360003F2038803A203080552038800D48A6F82C
:102370000080FFF7A7FA292030800620FFF746FEED
:1023800035803888388817B0BDE8F08F00400318D2
:1023900000140140950E00081000031800080310F7
:1023A00040000310FCBF02002DE9F04107462A203F
:1023B000984616460C4600F05BF80F4D380AA847C1
:1023C000F8B2A847B819461EC6F30F20A847F0B2C6
:1023D000A8472B2000F04CF8200AA847E0B2A847F5
:1023E00004EB0800441EC4F30F20A847E0B22946BE
:1023F000BDE8F041084700BF792400084FF0DA40FB
:102400000088704710B50A4C4FF400612046FEF773
:10241000A5FD40F6FF20FFF755FA20464FF4006176
:10242000FEF79EFD40F6FF20BDE81040FFF74ABAD8
:10243000002001401346FFF7B7BF000010B5144657
:102440000A4A128882420ED9074A12888A420AD959
:102450002246FFF7EFFF484904FB04F00988BDE876
:102460001040FFF7ABBD10BD0800002006000020A3
:102470004FF0D841088070474FF0DA41088070472C
:102480002DE9F0471F280DD801FB00F440F2FE367D
:10249000651EB54206D803FB02F543F6FE76013D04
:1024A000B54201D9BDE8F087090405044FEAD40814
:1024B000264C4FF0000991FBF3FE0A9995FBF2FCC4
:1024C000089DF1B11FFA89F188451ED90026082E12
:1024D00006D06F5CB740FFB2FF09A7550136F6E79B
:1024E000344409F10109EDE70026082E06D06F5C9F
:1024F000B740FFB2FF09A7550136F6E7344409F1AA
:1025000001091FFA89F18845EED80CF1010A104E35
:10251000DFF838C00EF1010E4FF000084FF000094F
:102520009945BFD04FEA18410025002701FB00C1A3
:10253000BA4205D02C0C55440C5DF4550137F7E731
:102540001644F04409F10109EAE700BF3F8B00207F
:102550003F4B002005480068704700BF064A518085
:102560001080704701490860704700BF24000020B8
:1025700001490880704700BF80080020FEE77047CF
:1025800070B5C2781149A2B1154A0723126845787F
:102590008678047823EA12220F23D340C2F1040282
:1025A000334005FA02F21A430B19120183F8002393
:1025B00000E080310078012300F01F02C0F34210D8
:1025C00003FA02F241F8202070BD00BF00E100E0F4
:1025D0000249084302490860704700BF0000FA053D
:1025E0000CED00E070470000044A002911680CBFA0
:1025F00021EA000008431060704700BF1410024039
:10260000044A002911680CBF21EA00000843106049
:10261000704700BF1C100240044A002911680CBF1B
:1026200021EA000008431060704700BF1810024004
:1026300064480C4A016841F00101016041681140A1
:10264000094A4160016811400160016821F480215C
:102650000160416821F4FE0141604FF41F01816077
:10266000704700BF0000FFF8FFFFF6FE10B54A49B3
:102670000A6802F00C03164A082B0BD10B68C3F34F
:1026800083430C680233E40302D50C68A40300D52D
:10269000104A5A430260104C0B68C3F30313E35C07
:1026A000DA4042600B68C3F30223E35C22FA03F3CF
:1026B00083600B68C3F3C223E35CDA40074BC2605C
:1026C0000968C1F38131595CB2FBF1F1016110BDC0
:1026D00000127A0000093D00E0760008DC76000870
:1026E00001223849B2EB501F04D04209022A14BF1C
:1026F00024312031096800F01F0021FA00F000F0B9
:10270000010070472448006800F00C00704700BFCB
:1027100021490A6822F0F00210430860704700BFA8
:102720002849B0F5803F0A6822F480320A600A68BE
:1027300022F480220A6004D0B0F5802F04D14FF437
:10274000A0200A6810430860704700BF12490A6859
:1027500022F4E06210430860704700BF0E490A6827
:1027600022F4605242EAC0000860704701490860E4
:10277000704700BF60004242084307490A6822F4DC
:102780007C1210430860704703490A6822F0030274
:1027900010430860704700BF0410024081B0002061
:1027A000009008480168009A01328903009200995C
:1027B00002D4B1F5A06FF5D10068C0F3404001B07C
:1027C000704700BF00100240F8B54AB30646C8B2D1
:1027D00014460D46C0F5807797421AD230462946F6
:1027E0003A4600F08BF9E01B00213E443D44C4B260
:1027F000B1EB102F0DD0070A5FB1304629464FF4D8
:10280000807200F07BF906F5807605F58075013F52
:10281000F2E7304629462246BDE8F84000F06EB99E
:1028200002A0BDE8F84004F047BF00BF5350495F25
:10283000464C4153485F5061676557726974652023
:10284000746F6F20736D616C6C2100000288002929
:1028500042F0400308BF22F04003038070470000AD
:10286000F8B5044600F08CF9CA4DBC4F1026202064
:102870006E60B847C4F30740B847C4F30720B847B1
:10288000E0B2B8472E60BDE8F84000F027B900BFBD
:10289000F0B585B04FF4805001210126FFF7BCFE52
:1028A00004200121FFF7B8FE19481A4C6D461A4F53
:1028B000294600902046B8471848294600902046EF
:1028C000B8471748294600902046B847154829467A
:1028D00000902046B8471020694620614FF40070F0
:1028E00004F52054ADF80860CDF80A004FF400302C
:1028F00001900020CDF80E004FF08270009020462D
:1029000000F05BF820460121FFF7A0FF05B0F0BD05
:102910002000031800080140950E00084000030441
:10292000800003181000031070B5184E184C0546AF
:102930004FF4C04030602046022100F035F848B91D
:102940003068411E00283160F5D10020002400F0DD
:10295000A9F819E02046294600F02DF84FF4C040B0
:1029600030602046012100F01FF848B93068411E50
:1029700000283160F5D1012000F094F8002403E034
:10298000204600F016F80446E0B270BD2800002092
:1029900000300140B0B57F4C1025AB206560FFF7DB
:1029A000C3FF2560B0BD00BF0089084018BF0120EB
:1029B000704780897047818170470A88038803F4D3
:1029C00041531A434B881A438B881A43CB881A43C6
:1029D0000B891A434B891A438B891A43CB891A43B3
:1029E0000280828B22F400628283098A018270470E
:1029F0002DE9F0410E46674905461020574F144611
:102A0000486003208846B847C6F30740B847C6F376
:102A10000720B847F0B2B84734B10020FFF784FF71
:102A200005F8010B013CF7E71020C8F80000BDE8ED
:102A3000F08100BF2DE9F04156481027474E47600E
:102A400080469F20B0470020B04704460020B04792
:102A500005460020B0472902C8F8007041EA044149
:102A60000844BDE8F08100BF2DE9F0410C46054661
:102A700000260FF2240809A7B44208BFBDE8F08180
:102A8000300602D1404604F07FF9A95D384604F0D3
:102A90007BF90136F0E700BF0D0A20003078257879
:102AA00020000000014601A004F06EB93C3C2D4618
:102AB0004C4153482D4552524F522D3E3E205350CB
:102AC0004920B5C8B4FDB3ACCAB1216572726F724A
:102AD000436F6465203D2025640A000010B52D4C2D
:102AE000102060600520FFF71FFF0020FFF71CFF8C
:102AF000C007FAD11020206010BD00BF2DE9F041C1
:102B000015460E46044600F03BF813491020134FBB
:102B1000486002208846B847C6F30740B847C6F366
:102B20000720B847F0B2B847B5F5805F0AD90CA0C6
:102B300004F0C2FD4FF4805504E014F8010BFFF7D8
:102B4000F3FE013D002DF8D11020C8F80000BDE8CB
:102B5000F041FFF7C3BF00BF10080140292900085A
:102B60005350495F464C4153485F50616765577207
:102B700069746520746F6F206C6172676521000055
:102B8000B0B5044C102506206560FFF7CDFE25602A
:102B9000B0BD00BF100801402DE9F04F9DB04FF4CB
:102BA000F07001214FF00108FFF736FD9D486C469B
:102BB0009E4D214600909C4800F5006682463046B6
:102BC000A84702202146ADF800003046A84704205F
:102BD0002146ADF800003046A84708273046214678
:102BE000ADF80070A847102021464FF01009ADF84D
:102BF00000003046A847202021464FF0200BADF8BA
:102C000000003046A8474FF480502146ADF8000040
:102C10003046A8474FF400502146ADF8000030463A
:102C2000A8474FF480402146ADF800003046A84741
:102C30004FF400402146ADF800003046A8470AF5A1
:102C400040662146ADF800803046A8470220214664
:102C50004FF00208ADF800003046A8470420214696
:102C6000ADF800003046A84730462146ADF8007068
:102C7000A84730462146ADF80090A8473046214687
:102C8000ADF800B0A8474FF400602146ADF8000051
:102C90005046A8474FF480502146ADF800005046FA
:102CA000A8474FF400502146ADF800005046A84711
:102CB0004FF480402146ADF800005046A8474FF43D
:102CC00000402146ADF800005046A84701202146AB
:102CD000ADF800005046A84750462146ADF80080A8
:102CE000A84780200AF580672146ADF800003846E5
:102CF000A8474FF4807B38462146ADF800B0A8477E
:102D00004FF4007938462146ADF80090A8474FF4BB
:102D1000806838462146ADF80080A8474FF400602F
:102D20002146ADF800003846A8474FF480502146B0
:102D3000ADF800003846A8474FF400502146ADF8E2
:102D400000003846A8474FF480402146ADF8000007
:102D50003846A8474FF400402146ADF800003846F9
:102D6000A84750462146ADF800B0A8475046214636
:102D7000ADF80090A84750462146ADF80080A8471E
:102D800030462146ADF80080A84720202146ADF806
:102D900000005046A847102650462146ADF8006076
:102DA000A84702202146ADF800003846A847012078
:102DB0002146ADF800003846A8474FF48070012145
:102DC000FFF712FC00200221CDE91600CDE9190021
:102DD000CDE91B00CDE90F00CDE913001590189146
:102DE000CDE911104FF480410B910421CDE9020689
:102DF0000C900A90CDE9001004F110001421FDF7A9
:102E0000BAF90FA80E9016A80D904FF480500990B3
:102E10002046FDF719FE04200121FDF703FE1DB039
:102E2000BDE8F08F0100031800140140950E000862
:102E300010B529A003F0A8FF00204FF480114FF037
:102E4000D042002319B1985401390133FAE7002028
:102E50004FF0D041B0F5801F02D040540130F9E767
:102E600000214FF0D040B1F5801F09D00A5C4B1C07
:102E7000C9B28A421946F6D022A003F085FF24E0A9
:102E800025494FF0D0400022884202D020F8022B82
:102E9000FAE700204FF0D0410022B2F5002F03D016
:102EA000425202300132F8E700204FF0D0410022B8
:102EB000B2F5002F0BD0435A541C92B20230934209
:102EC0002246F5D015A004F0F7FB002010BD18A095
:102ED00004F0F2FB012010BDD5FDD4DABCECB2E267
:102EE0005352414DA3ACD2D438CEBBA1A23136CE81
:102EF000BBB5C4B7BDCABDB6C1D0B47372616D2EC7
:102F00002E2E000038CEBBCAFDBEDDB6C1D0B4B493
:102F1000EDCEF3A3A1000000000010683136CEBB57
:102F2000CAFDBEDDB6C1D0B4B4EDCEF3A3A100009E
:102F30005352414DB6C1D0B4B2E2CAD4D5FDB3A309
:102F4000A3A1000070B50E4C4FF0D045A2200D4E4D
:102F5000A22128702046B04742F6A22042F6A221C4
:102F6000288009A0B0470E48144B4FF0204228603B
:102F70000CA0B04720466A213246BDE87040104799
:102F80009A100208896D0008B6C1B3F6B5C4CAFD2F
:102F9000BEDDCEAA323A20307825780A0000000043
:102FA000CD4CA742B6C1B3F6B5C4CAFDBEDDCEAAAC
:102FB000333A203078252E32660A000099E95440D1
:102FC0007047000010B59AB0044605A004F074FBE9
:102FD00001A82146FDF7E1F803F0F0FD1AB010BD9D
:102FE0000A2A2A2A2A2A2A2A2A2A2A2066696C6573
:102FF0005FC2B7BEB6B2E2CAD4202A2A2A2A2A2A37
:103000002A2A2A2A0D00000003F060B882B0364850
:10301000364A016841F00101016041681140344ABB
:103020004160016811400160016821F48021016064
:10303000416821F4FE0141604FF41F0181600021CD
:1030400001910091016841F480310160016801F44F
:1030500000310091019901310191009919B901994B
:10306000B1F5A06FF2D10168890354BF002101219D
:1030700000910099012930D11E490A6842F01002DE
:103080000A600A6822F003020A600A6842F002023B
:103090000A604168416041684160416841F4806173
:1030A0004160416821F47C114160416841F4E811BC
:1030B0004160016841F08071016001688901FCD5BF
:1030C000416821F003014160416841F00201416023
:1030D000416801F00C010829FAD107484FF000615E
:1030E000016002B0704700BF001002400000FFF80E
:1030F000FFFFF6FE0020024008ED00E010B5A54CF1
:1031000040F22551204600F021F840B1204600F061
:103110009FF8C1B22046BDE8104000F09DB810BD38
:103120008289002942F4005308BF22F400538381AE
:103130007047002A828A0CBF22EA01011143818272
:1031400070470088084018BF0120704701F01F0237
:10315000012303FA02F2C1F34213022B06D0012B22
:1031600014BF00F1140300F10C0301E000F110039F
:103170001B880088090AC84012EA030118BF012110
:103180000840704710B501F01F03012404FA03F34F
:10319000C1F342141421022C08BF1021012C08BFD6
:1031A0000C21002A42580CBF9A431A43425010BDCA
:1031B00070B586B004460D46C88801AE218A21F458
:1031C000405108434EF6F3112082A0890840A98897
:1031D00008432989084369890843A081A889A18AED
:1031E00021F440710843A0823046FFF73FFA694955
:1031F00006F1080002226FF063038C4208BF06F15B
:103200000C00192100684843B4F90C10002948BF8C
:103210000122296804259140B0FBF1F06421B0FB44
:10322000F1F202FB0300B4F90C30002B48BF032578
:10323000A8403230002BB0FBF1F04FF00F0148BF37
:103240000721084040EA0210208106B070BD00BF8F
:1032500080886FF35F2070476FF35F218180704734
:10326000FEE770B50D4604460426300606D0290E4A
:10327000204603F010F82D02013EF6E720464021DB
:10328000FFF75FFF0028F9D170BD000070B5414E17
:103290000C460546200408BF70BD02CD3046FFF73E
:1032A000E0FF013CF6E700BF10B5130407D00B6840
:1032B00004689C4205D1013A04310430F5E701204D
:1032C00010BD002010BDF0B58BB00F4604460120A4
:1032D00001211D461646FFF787F94FF480406946E5
:1032E0000A904FF400500990002008904FF40060BD
:1032F00007904FF400700690802005904020CDE9A3
:103300000370109802902046CDE90065FDF724FA7D
:1033100020460121FDF708FA0BB0F0BD7CB506464A
:1033200012A014460D4604F0C7F9184831462A4643
:103330002346C0E9006410200090154800F0D0F842
:10334000144C802101222046FFF7F3FEFA200221CF
:1033500002F0D4FE20468021FFF7F3FE0028F9D0CA
:103360000DA0BDE87C4004F0A7B900BF0ABFAACAFF
:10337000BC20524F4DB5BD5553415254B5C4B4ABAA
:10338000CBCDB3F5CABCBBAF000000005008002095
:1033900044000240003801400D524F4DC4DAB4E6FB
:1033A000B5BD5553415254CDE2C9E8B5C4444D4171
:1033B000B2D9D7F7CDEAB1CF000000007CB5064600
:1033C00013A014460D4604F077F9002031462A4632
:1033D000234600901648FFF776FF4FF40010FDF7E4
:1033E000AFF90028F9D0144C124814222146FFF7F7
:1033F0005BFF18A111A2002808BF1146084604F07F
:103400005BF920461421BDE87C40FFF73FBF00BFB9
:10341000BFAACABC20524F4DC4DAB4E6B5BD524172
:103420004DC4DAB4E6B5C4444D41B2D9D7F7200053
:103430006C00024060B200089C180020524F4DC43E
:10344000DAB4E6B5BD444D41B2D9D7F7D2ECB3A357
:1034500020000000524F4DC4DAB4E6B5BD444D41E2
:10346000B2D9D7F7D5FDB3A3200000007FB54FF444
:1034700000100121FFF7C4F808200121FFF7CCF864
:10348000124C11486E46314604F5384500902846E6
:10349000FDF700FD0E48314600902846FDF7FAFC86
:1034A0004FF480406946ADF80C000A4802900A4883
:1034B00001900A4800902046FDF7ECFD20460121CE
:1034C000FDF78CFD7FBD00BF4000031C0054004091
:1034D0008000031C5F0000040000FFBF801A06008C
:1034E000F0B58BB00E460746012001211C4615465B
:1034F000FFF77AF800204FF480510A90CDE90801D7
:103500004FF4006107914FF40071069180210591FD
:10351000CDE903601098694602903846CDE9005421
:10352000FDF71AF938460121FDF7FEF80BB0F0BDA2
:1035300010B504464FF0FF30E062002020712046B5
:1035400003F04EFA08B1032010BDB4F82E024AF67B
:10355000552188421CBF022010BD94F8671094F8D2
:10356000682094F86600090241EA024101440948D2
:10357000814204BF002010BD94F8832094F8843069
:1035800094F88210120242EA03421144081A18BF4A
:10359000012010BD4641540010F8012B0AB18A42A7
:1035A000FAD11046704742690239023A91422FBF60
:1035B0000020826A807801FB00207047F8B50D4634
:1035C000044671B12046294603F076F802283CBF34
:1035D0000120F8BD411C20D061692F46884206D2E7
:1035E000F8BDE76817B16069874200D301273E46FE
:1035F00060690136864228BF022601D3022F0AD312
:103600002046314603F058F8411CE9D040B101286A
:10361000E6D0BE42ECD10020F8BD4FF0FF30F8BD3F
:10362000204631466FF0704203F0F6F9014635B19D
:1036300029B920462946324603F0EEF9014629B160
:103640000120012908BF4FF0FF30F8BD2069E66076
:10365000411C05D001382061607940F001006071A3
:103660003046F8BD2DE9F84F0021044600F003FB79
:1036700008B1BDE8F88F4FF6FF764FF0FF094FF025
:103680000D08FF2726842068216903F0A9F9002886
:10369000EFD165692878E52809D0002800F08180FD
:1036A000EA7A02F03F0112070BD50F2909D02684D0
:1036B0004FF0FF092046002100F076F80028E2D004
:1036C000D7E70F290BD1D4F81CA0BAF1000FF1D025
:1036D000410619D45FFA89F18842E9D119E05FEA1D
:1036E000096004D1284603F0CBFA874256D0A0697E
:1036F000C17AC907DBD100210B294FD0425C6B5C3A
:1037000001319342F8D0D2E7E1886F7B00F0BF0926
:103710002184687B8742CBD1688B0028C8D1287868
:10372000009700F03F0000FB08F04FF00008A0F108
:103730000D0B0120B8F10D0F1DD09C4911F8081098
:103740006E5A80B1BBF1FE0F1DD8304601F0F8FC77
:1037500007463AF81B0001F0F3FC874213D10BF146
:10376000010B304604E04FF6FF7086420BD100207B
:1037700008F10108DEE748B1287810F0400005D0D4
:103780003AF81B0010B14FF0FF0901E0A9F101095F
:10379000009F4FF6FF764FF00D088BE70020BDE845
:1037A000F88F0420BDE8F88F2DE9F8430446C0885F
:1037B000461C30044CD00F462169002948D02568AA
:1037C00068894009B6FBF0F202FB106090B9481C12
:1037D000E168206151B1A8780138104209D128462A
:1037E00002F06AFF02280CD2022732E028898642C2
:1037F0002ED2002005EB40100027E68030306061BB
:1038000027E0804601302BD02568686980450DD2BD
:1038100028464146C4F80C80FFF7C5FE2061688940
:103820004009B6FBF0F101FB1060E3E787B1E16806
:103830002846FFF7C3FE8046013003280CD21B49FF
:1038400001EAC0001A4921FA00F0C0B2BDE8F883CD
:1038500004273846BDE8F883206803F059FA08B118
:103860000127F6E7206800214FF000094289303037
:1038700003F0B0F8256841462846FFF794FE01277B
:10388000E862A97889450CD228462F7103F040FAE6
:103890000028DED1256809F10109E86A0130E862F3
:1038A000EFE7A0EB0900E862B2E700BFF8FFFF0016
:1038B000010702002DE9F84FDFF850B30446FF2757
:1038C00004254FF00D084FF6FF7A4FF0FF092169EC
:1038D000002957D0206803F083F8002850D1606990
:1038E0000178002950D02E291BD0E52919D0C27AA1
:1038F00002F01F03082B14D002F03F020F2A49D117
:103900004A0603D4FAB2914206D00AE0E28890F85F
:103910000D9001F0BF072284417B894501D1418B85
:1039200041B1FF27204600210025FFF73DFF002879
:10393000CDD025E00278E1690126002302F03F02A4
:1039400002FB08F20D3A0D2B0FD01BF80350455B1C
:1039500036B1FE2AE5D821F8125001322E4602E097
:103960005545DED100260133EDE7007840064FF0E3
:10397000000003D5FE2AD4D821F81200013FD1E778
:10398000054602E00DB90EE0042500202061E8B2F2
:10399000BDE8F88F390603D103F072F9814502D0F2
:1039A0004FF0FF3020840025F1E700BF50B200083F
:1039B0002DE9F04F89B0D0E90654064604A80C2240
:1039C000294602F0FFFF9DF81B100396C80703D19C
:1039D000880768D4012470E0CDE9011400240DF1BA
:1039E0001C0A4FF001094FF0030BEC72F461864E94
:1039F0000AF10708B9F1640F00F0F680284604A91F
:103A00000B2202F0DFFF0299B9F1060F484610D3EE
:103A10000A8872B1102353B102F00107013B52082A
:103A200047EA4007000448BF77403846F3E70231D1
:103A3000EEE70622014608EB0203013A6BF31F1181
:103A4000392988BF073103F8061C0109B4EB101FA0
:103A50000846EFD108EB02007E2100F8061C501C3E
:103A6000002181420CD26B5C202B09D07F33DBB26A
:103A70007D2B02D8914202D001310131F1E711468C
:103A800007289ABF1AF80020013020226A54013119
:103A90000829F5D30398FFF7E5FD002840F0A18041
:103AA00009F10109A6E7002034F8101001300029BF
:103AB000FAD118300D21B0FBF1F43046002100F0AE
:103AC000DAF80746B0B900253068316902F088FF9E
:103AD00078B970690078E52800D018B90135A54299
:103AE00001D10CE0002530460121FFF75DFE0028E2
:103AF000EAD00746042F08BF0727002F75D1B4F17D
:103B0000010852D0039CE088A0EB0801204600F099
:103B1000B2F80746002868D1A06903F0B1F8DFF8D1
:103B2000EC9082464FF6FF764FF0010B039C206825
:103B3000216902F055FF002864D160690F21D4F893
:103B40001CC05FFA88F300220024A0F80B100D219E
:103B5000471C428380F80DA04B430D3BB44219F83B
:103B600002501ABF3CF8134001334FF6FF74210A8C
:103B70000132002C7955445508BF34460D2AEDD149
:103B8000B44204D03CF813100029414601D148F05A
:103B9000400101700398016881F804B00021FFF72B
:103BA00003FE78BBB8F10108C0D1039C20682169ED
:103BB00002F016FF0746C0B96069002120220027E5
:103BC00002F008FFD4E905010B2202F0FBFED4E964
:103BD0000501C97A01F01801017301212068017102
:103BE00003E0B9F1640F04D10727384609B0BDE8F6
:103BF000F08F039E07460428F7D10199029CE972D1
:103C0000F461E5E60746F0E72110010050B2000834
:103C10002DE9F041018C0446C6884FF6FF708142C1
:103C2000204608BF314600F026F8054610B1284668
:103C3000BDE8F0814FF0E5080127002520682169E3
:103C400002F0CEFE90B960690021202202F0C2FE8F
:103C5000606980F8008020680771E088B042E6D291
:103C600020460021FFF7A0FD0028E7D0042808BF68
:103C70000220BDE8F0812DE9F0418768C180012F65
:103C80003FD006688046706987423AD20D46B7B188
:103C90007189B078490901FB00F4A5421BD3304675
:103CA000394602F009FD074601302DD0022F28D3F6
:103CB000D8F800607069874223D22D1BEDE7307879
:103CC000032802D1776A002FE2D13089A84218D99F
:103CD000706A002703E030463946FFF764FCC8F8F5
:103CE0000C7070B171894909B5FBF1F202FB1151F9
:103CF000104406EB41113031C8E904010020BDE851
:103D0000F0810220BDE8F0810120BDE8F0810128AA
:103D10001CBF0120704780B5FEF7BAFDFEF73AFEE2
:103D20000120BDE8804000F025B8012808D1032912
:103D300008D0022908D0012902D14FF4A06005E083
:103D400004207047012001E04FF4805010600020F3
:103D5000704701281CBF0420704710B54FF40010B5
:103D600000EB023408461A032146FEF741FE00200C
:103D700010BD000001281CBF0120704780B5FEF770
:103D800059FE0249401A18BF012080BD1740EF00BC
:103D900070B50D460146042001290ED11C4663B1C1
:103DA0004FF4001000EB02363046FEF759FD2203B7
:103DB00028463146FEF708FD002070BD10B50446C8
:103DC00001F03EF800B110BD204602F0C7FF002808
:103DD000F9D10020206010BD10B5044602F0BEFFEE
:103DE00000B110BD0021216010BD2DE9FE4F8A46B3
:103DF00002901546104602A9002201F05FFA08B1B0
:103E0000BDE8FE8FD5F80080D8E90474A01E874273
:103E100018D998F80090B9F1010F15D100270226A2
:103E20004046314602F048FC20B1411C42D00128F6
:103E300001D13DE00137D8F8140001368642EFD3B6
:103E4000002038E000203EE0D8F820B0CDF804A0F3
:103E500008F1300A00270020002148B940465946A1
:103E600002F0BEFD08BBB8F80A000BF1010B514689
:103E7000B9F1020F04D10B886FF0010202260CE0A9
:103E80008E78CD784B780A78360465F31B6646EA5F
:103E90000323042613446FF00302002B08BF0137ED
:103EA00010443144013CD8D10020DDF804A002E0E8
:103EB000022000E0012098F80510C8F8107041F0C9
:103EC000010188F80510CAF80070BDE8FE8F2DE9E1
:103ED000F0410E46044602F041FF0546002840F03E
:103EE000A380E579002D40F09F80E568B5420AD2B5
:103EF000A079800708D5A0460020354658F8081F4D
:103F0000C8F8000007E03546A046002758F8081F0B
:103F1000C8F80070BDB320688278438903FB02F6BD
:103F200039B16B1E0139B1FBF6F2B3FBF6F39342E4
:103F300004D22169002956D0616104E07042084032
:103F40006169A0602D1AE1B1B54258D9A279206803
:103F5000920703D402F0B0FB014604E0FFF72EFB0A
:103F6000014600284DD0481C47D002295AD320686A
:103F70004069814256D2A0686161AD1B3044A060A7
:103F8000E2E7D8F80070002620684189B7FBF1F21B
:103F900002FB1171E9B1A26996421AD0A1794906D2
:103FA0000CD5407804F1240101230125FFF7F0FE30
:103FB000C8BBA07900F0BF00A0712068407804F170
:103FC0002401324601230125FFF7C3FE58BBA76831
:103FD000A661E068874204D9A079E76040F020003C
:103FE000A071002520E00021FFF7E8FA014601302A
:103FF00003D0012916D021619EE7012513E02E464A
:1040000000E00021A268206897194289A760B6FBEA
:10401000F2F505FB1262002AB5D0FFF7C4FA08B129
:104020002E18B1E70225E5712846BDE8F0812DE99B
:10403000F04FADF5117D909002F0B6FB044687A8D5
:1040400090A9012201F03AF9054638BB04A89099DD
:104050008E9084A88D9087A802F0B4F905460028B8
:1040600008BF0825042D19D1879E00210025304660
:10407000FFF7A4FA002808BF07258146012808BFDA
:104080000225013008BF012525B9304602F040FE67
:1040900048B105463046494602F065FD28460DF513
:1040A000117DBDE8F08F30464946FFF77CFA7289F2
:1040B00006F1300807460021404602F08BFC4046DE
:1040C00020210B2202F086FC200E4FF02E0A4946DA
:1040D00086F84640039086F84900200C86F830A008
:1040E000029086F84800200A019086F847001020C8
:1040F00086F83B00404602F0BDFD06F15005414602
:104100002022284602F05EFC3178899886F851A07A
:10411000032904D1716A411A18BF014600E0014623
:10412000284602F0A7FD96F802B04FF0010A5FEAB8
:104130000B6010D0304686F804A0F76202F0E8FD6C
:104140000028A6D172894046002102F043FCABF161
:10415000010B0137EBE787A8FFF72AFC08B1879E20
:1041600097E78C98039941760299847501760199B5
:10417000C1751021C172494602F07CFD879801216A
:10418000017102F08BFD054688E700002DE9F04F34
:104190008DB001290C9001D913272FE00CA81646E9
:1041A0000D4602F069FB002821D4DFF8401501EB31
:1041B00080014C68ECB15FFA80FB00215846217009
:1041C000FFF7A5FDC10716D1400716D404F10A0A6E
:1041D000584602215246FFF7A8FD30B9BAF8000050
:1041E000A0F50070B0F5606F0CD9012706E00B2731
:1041F00004E00C2702E0032700E00A2738460DB050
:10420000BDE8F08F0AAA584601210127FFF78DFD6E
:104210000028F3D10A988028F0D34FF0000E002D2B
:10422000A6F1010108BF4FF03F0EA0EB0E0C0E42AD
:10423000CDF828C018BF00269EB9BAF800104FF478
:10424000FA62DFF8B034490AB2FBF1F1BCFBF1F2DB
:10425000DFF89C14023933F8026B0231B242FAD310
:104260000E88B6F5007F03D3BAF80010B6FBF1F65E
:10427000002E08BF012640F6F5710127802E28BFC9
:104280008026BCFBF6F38B424FF6F57188BF022700
:104290008B424FF6F67188BF032708938B420AD3EF
:1042A000BAF800104FF0000801EB83020732B2FBAE
:1042B000F1F0202216E0012F06D103EB4301032287
:1042C000013102EB510102E0042101EB4301BAF894
:1042D00000204FF480431144B3FBF2F80139B1FBE5
:1042E000F2F0012202EB0E030792A6EB0E011A4632
:1042F00004931A1802EB080949448C4501D20E2791
:104300007CE709900BAA58460321CDE90587CDF833
:104310000CE0FFF70AFD20B90B9B581EB0F5004FCB
:1043200001D301230B93DDF820C04FF6F57E002169
:1043300009EB03085B420022F44588BF01210A9F74
:104340000598F4454FF0000E0297A7EB0000A8F186
:10435000010703EA0703A3EB0903E1460B9388BFB8
:104360009E46079FDDF824807744A0EB070007975F
:1043700098BF98440023A0EB0800B0FBF6F74FF677
:10438000F670874240F6F67038BF012301978742E6
:1043900038BF0122DDF818C00E27ACF10200B0FAD8
:1043A00080F04009104208BF11EA03007FF426AFF5
:1043B0004FF6F570814501D90C270CE002990620D3
:1043C000B1F5803F38BF0420074638BF0127BCF154
:1043D000010F18BF0746002DCDF800E0CDF824806E
:1043E00000F0F880F020628904F13007029000218B
:1043F0000025384602F0EEFABFA138460B22B84637
:1044000002F0E0FA4FF6F67081454FF0000038BF39
:104410000120079984F83D60400084F842000120A3
:1044200084F83E10A4F84000080A84F83F00608930
:1044300084F83B00000A84F83C000A98B5EB104F62
:1044400014BF2065A4F84300002084F84F00A4F8AE
:104450004D000398029984F84C00AA4884F845104E
:10446000A06402F0A1F94FF6F6710B9089451BD3B9
:104470002921C4F8730084F87210802184F8701028
:10448000A64921660221E1650999080E84F85410B5
:1044900084F85700080C84F85600080AA0A184F894
:1044A000550004F1770010E02921C4F8570084F882
:1044B0005610802184F854100999080A84F846108F
:1044C00091A184F8470004F15B00132202F07AFA0C
:1044D0004AF65520039A414601230127A4F82E02EB
:1044E0005846FFF755FC0699009A00287FF486AEDF
:1044F000049815184FF6F670814507D30398414686
:104500000123821D5846FFF743FC06996FF0FF0018
:10451000012904BF4FF60070C0F2FF00029FC119CD
:10452000000E069067F0FF000791049004F131003F
:1045300000900120C00700F08D80BAF800204046AE
:10454000002102F047FA4FF6F5700B9781450CD920
:1045500000984FF0FF3184F83070016041600181B4
:104560000F2084F83B00049809E0069884F8307026
:1045700084F833004FF6FF70A4F8310007980B90D1
:10458000584641462A4601230127C146FFF700FC51
:1045900000287FF433AEBAF800204846002102F02C
:1045A00019FADDF820900135012009990B90884215
:1045B0000DD2584641462A4601230127FFF7E8FB62
:1045C00000287FF41BAE0B9801350130EDE7029F08
:1045D0000020AFE704F13005628900214FF00008A8
:1045E000284602F0F7F90A99FE20012384F8F271B7
:1045F00084F8F181012784F8F30140F201100A0EDA
:1046000084F8FA11A4F8EF014AF6552084F8FD2148
:104610000A0CA4F82E023F2084F8FC210A0AC4F8F0
:10462000F60184F8FB21039A114443F6C162B1FB01
:10463000F2F1002240EA910084F8F5110B9129462D
:1046400084F8F4015846FFF7A3FB00287FF4D6ADA9
:10465000F820C8E64FF6F5700127494681450598D0
:1046600088BF304646460590584631462A460123C3
:10467000FFF78EFB00287FF4C1AD059801350138A6
:104680000590F1D14FF6F670814525D34AF65520B5
:104690000123A4F82E020220C4F81C022548C4F805
:1046A00014022548206301980138010E84F818028D
:1046B00084F81B12010C000A84F81A1284F81902FB
:1046C000039C58464146621CFFF762FBE21D5846B8
:1046D00041460123FFF75CFB584600210022FFF70B
:1046E00024FB0746002818BF012787E5840800201F
:1046F000B0B20008F8100208EBFE904D53444F533F
:10470000352E30003F00FF004E4F204E414D4520DA
:1047100020202046415420202020200001000600B7
:104720004E4F204E414D45202020204641543332EB
:10473000202020007272416152526141BFB505468E
:10474000039001A81446CDE9011102F095F8002864
:1047500012D40C4901EB8001486808B100220270B4
:1047600065B10020012C4D60287009D103A802A971
:10477000002200F0A3FD03E00B2001E04D600020CB
:1047800004B0B0BD840800202DE9F047ADF50E7DE2
:1047900000288D9176D004460020174602F01E02B4
:1047A0008DA9206084A800F089FD064600286AD102
:1047B00001A88D9907F01F0A8B9081A88A9084A880
:1047C00001F000FE899D0646002D08BF0626002840
:1047D00018BF06461AF01C0F5AD0002E64D0042EC3
:1047E00004D184A8FFF7E4F8899D06464AF0080A38
:1047F0007EBB1AF008002CD001F0D6FF849F010E7A
:10480000020CA875A873000A002669766974E87519
:10481000E8732946EE61EE722A762A74384602F071
:104820004CF8804601206E83AE82B8F1000F3871DB
:1048300010D0D7F82C903846414602F094F906463D
:1048400008BBA8F101004946F860384602F0C8F8F4
:104850000646C6B90026849F25622946E671F86A95
:10486000E0610AF008004AEA8000A071384602F0D0
:1048700024F82061E869C4E902602760A661F8882D
:10488000A08000E0092630460DF50E7DBDE8F087DA
:10489000002EF8D1E87AC10610D45FEA8A71D9D522
:1048A00010F0010004D1D5E7E87A10F0110F01D023
:1048B0000726E8E7082000EA470699E70426E2E72A
:1048C00070B5ADF5067D859138B3044684A885A9F9
:1048D0000022002600F0F2FCE8B901A881A9C4E991
:1048E00006102046849D8599256001F06BFD70B906
:1048F000616931B1C87AC0060CD5284601F0DDFFE8
:10490000A060E8880021A0802046FFF7B4F928B114
:10491000042800D10520266000E009200DF5067D61
:1049200070BD000082B02DE9F04F99B00D4622A96C
:104930000DF14C08EB46CDE9222318910021A8F196
:10494000010A0291CDE900012C4614F8011B25292A
:1049500007D0002900F0E180584602F0E9F825462A
:10496000F2E76978302904D02D2907D14FF0020CE5
:1049700001E04FF0010CA978033502E002354FF059
:10498000000C0027A1F13000C0B2092809D807EBBC
:104990008700C9B201EB400015F8011BA0F13007F8
:1049A000F0E741F02000C0B26C2804BF15F8011BED
:1049B0000CF1040C080600F0B080A1F16100C0B257
:1049C0001A28084638BF2038C4B2A4F14F0009287D
:1049D00008D8DFE800F0050F0F0F110F0D0F0F279C
:1049E000082222E0422C1FD0432C7CD0442C01D141
:1049F0000A221AE0C9B27AE01898011D18910468D9
:104A00000020215C01300029FBD101385FEA8C7164
:104A100071D4461CB84274D25846202102F088F85E
:104A20003046F6E7102200E002221898443C0026A7
:104A3000C9B2B4FA84F4031D640918930368002012
:104A4000002B48BF012614EA060E18BF5B427829E6
:104A50004FF0070108BF2721B3FBF2F606FB123423
:104A6000092C88BF0C4430340E2808F8004000F1AF
:104A7000010403D89A4220463346EDD9BEF1000F17
:104A800018BF0CF1080C30265FEA0C7042BF2D20D5
:104A900008F8040001340CF002085FEACC7008BF8B
:104AA00020262046B8F1000F09D100F10109B842D3
:104AB00006D25846314602F03BF84846F2E7A14696
:104AC0000DF14C081AF80410584602F031F8013C78
:104AD000F8D105E05846314602F02AF809F10109FB
:104AE000B945F7D330E71898011D18910178584659
:104AF00002F01EF828E7064603E0584602F018F8D0
:104B0000013421780029F8D104E05846202102F030
:104B10000FF80136BE42F8D316E7019A002A10D4E6
:104B200000980BF10C0117AB00F01BFA01464FF097
:104B3000FF3041B91799DDE901238A4208BF1846C1
:104B400001E04FF0FF3019B0BDE8F04F02B0704700
:104B50002DE9F84F044600209A4616468B46186009
:104B6000204602F0FBF808B1BDE8F88FE079002894
:104B7000FAD1A079C00704BF0720BDE8F88FD4E9B7
:104B8000020104F12408091AB14238BF0E46002E72
:104B900000F0848025686989B0FBF1F303FB110202
:104BA000002A43D1A978FF3101EA0307390601D071
:104BB00061690DE028B16169284601F07DFD01467B
:104BC00000E0216901296CD9481C6CD0256861611D
:104BD0002846FEF7E8FC002863D06989FAB200EBAA
:104BE00002098E4238D2A2694A4518D0A0794006FF
:104BF0000BD5687841460123FFF7CAF8002852D147
:104C0000A079256800F0BF00A071687841464A4647
:104C10000123FFF79EF8002845D120684189A0684C
:104C2000C4F81890B0FBF1F202FB11028D1AA01823
:104C3000B54288BF354600F1240158462A4601F0A6
:104C4000C1FEA068DAF80010761BAB442844294462
:104C5000A060CAF800109AE7B6FBF1F7AB78687865
:104C6000B918994288BF9F1A59464A463B46FFF7F2
:104C700070F8C0B9A07940060BD5A069A0EB090077
:104C8000B84206D221684A89414600FB02B001F0D1
:104C900099FE2068408907FB00F5D2E70020BDE8B7
:104CA000F88F022000E00120E071BDE8F88FB0B578
:104CB000ADF5047D0D46044602F050F810B10DF537
:104CC000047DB0BDCDB101A881A9C4E9061020467C
:104CD000FEF7F0FD18B10428F1D100202061204634
:104CE000294601F065FD204600210025FEF75CFD08
:104CF000042804BF25610020E1E720460021FEF7DB
:104D0000BAFFDCE770B5ADF51E7DCDE99C1093A828
:104D10009DA9012200F0D2FA60B993989D998A90DA
:104D20000DF106009A900DF20720999093A801F0DA
:104D300049FB10B10DF51E7D70BD9898E0B30DF2E2
:104D4000132400F10B011522204601F03BFE8AA836
:104D500093A9242201F036FE9CA801F08DFD0028C5
:104D60002CD49C998AA801F02DFB48B30428E1D1EA
:104D70008AA8FEF71DFE0028DCD18F9EA11C1322FD
:104D800006F10D0001F01EFE9DF81302939C40F009
:104D90002000F07201202071F07AC00603D58C9DAE
:104DA0009598A8420ED193A8FEF732FF0028C1D1F2
:104DB000939801F073FFBDE70420BBE70B20B9E730
:104DC0000820B7E72046314601F077FD014620462E
:104DD000FEF7E9FB88B10146204601F001FE0028FC
:104DE000A8D194F851002E28DDD104F150002946B5
:104DF00001F040FF01202071D5E702209AE710B5AD
:104E0000ADF50E7D0C468D9084A88DA9002200F092
:104E100055FA90B901A88D998B9081A88A9084A8A1
:104E200001F0D0FA48B9899830B11CB184A8214664
:104E300001F0BEFC002000E006200DF50E7D10BD47
:104E4000B0B5044601F08AFF0546D0B9A0798106C5
:104E500001D4002515E040060DD52068A26904F1B3
:104E60002401012301254078FEF792FF48B9A0797B
:104E700000F0BF00A0712068E16901F0B1FD0546B6
:104E800008B12846B0BD256AE87A40F02000E872F3
:104E9000E0682877E068000A6877E089A877E07B17
:104EA000E8772846216901F0E5FE01F07DFCC5F8B0
:104EB000160000200121688220680171A17901F0AB
:104EC000DF01A171BDE8B04001F0E8BEB0B5ADF5BD
:104ED000167D95908CA895A9012200F0EFF940B9B4
:104EE00068469599939080A892908CA801F06AFAF0
:104EF00010B10DF5167DB0BD919971B3CD7AE8076B
:104F00002DD18C9801F0D9FC0446B8B115F01000F1
:104F100014D083AD8CA92422284601F053FD2846E5
:104F200002218594FEF7A7FE0028E2D183A8FEF7B0
:104F3000C1FC002808BF07200428DAD18CA8FEF79E
:104F400067FE24B118B98C98214601F00CFE0028A8
:104F5000CFD18C9801F0A2FECBE70620C9E707204D
:104F6000C7E72DE9F84F04460020994616468B46C0
:104F70001860204601F0F2FE08B1BDE8F88FE07934
:104F80000028FAD1A07980075CBF0720BDE8F88F20
:104F9000A16804F12408C843B04238BF0026002E9F
:104FA00000F0998020684289B1FBF2F505FB1213ED
:104FB000002B4CD18278FF3215402A0612D121B144
:104FC0006169FEF7FBFA014602E02169002979D008
:104FD000481C79D0012979D000297BD020696161F2
:104FE00000B92161A07940060CD52068A26941462C
:104FF00001234078FEF7CCFE002865D1A07900F0AF
:10500000BF00A071276861693846FEF7CCFA002816
:105010005CD07A89E9B200EB010A964230D2A069ED
:1050200050450DD0D4E90201884209D27878414632
:1050300052460123FEF78DFE002845D120684289A3
:10504000A068C4F818A0B0FBF2F101FB1203E0184D
:10505000D51A5946B54288BF354624302A4601F054
:10506000B1FCA07940F04000A071A068761BAB4471
:105070004119D9F80000A1602844C9F800008EE762
:10508000B6FBF2F5BB7878786A189A4288BF5D1A49
:10509000594652462B46FEF77BFEA8B9A069A0EB05
:1050A0000A00A8420AD221684A8900FB02B14046A0
:1050B00001F088FCA07900F0BF00A0712068408951
:1050C0004543D2E700217CE7012000E00220E071A7
:1050D000BDE8F88FA168E068814288BFE160A079EF
:1050E00040F02000A0710020BDE8F88FF0B58028C6
:1050F00020D3114B114A002945F220516FF00F04C3
:105100004FF0020508BF1A46002364B1CE1A96FB81
:10511000F5F61E4432F82670874206D02CBF314681
:1051200033460134F1E70020F0BD700040F001008B
:1051300032F81000F0BD00BF0E1102087EBA000860
:1051400070B5802807D2A0F1610189B21A2938BF51
:10515000203880B270BD0B4C00214FF4F7726FF015
:105160000B03551A01EB550534F81560864205D03E
:1051700034BF29462A460133F3D370BD024830F8C4
:10518000150070BDC6B20008A2B600087CB5044682
:1051900023A002F091FA2C4D204605F10801FFF7FB
:1051A0002EFE287020B1014628A001F0EDFD34E06C
:1051B0002B482C4E2146B047A9682BA0B047E9895F
:1051C000A889C1F34512C90A00F01F03CDE90012F6
:1051D00040F2BC71C0F3431201EB502128A0B0474C
:1051E000287C482381064FF0410158BF2D214207FA
:1051F0004FF0530258BF2D22CDE90021C1064FF0D8
:10520000440158BF2D21C2074FF0520208BF2D2282
:10521000800758BF2D2323A0B04728787CBD00BF4E
:105220000A2A2A2A2A2A2A2A2A2A2A2066696C6510
:105230005F636865636B20B2E2CAD4202A2A2A2AF7
:105240002A2A2A2A2A2A0D0058080020A1B7B4EDDC
:10525000CEF320256C6428D7D6BDDA290A000000D9
:10526000A80F0208896D0008A1B7CEC4BCFEB4F334
:10527000D0A13A20256C6428D7D6BDDA290A0000CF
:10528000A1B7CAB1BCE4B4C13A2025752F2530328C
:10529000752F253032752C20253032753A25303265
:1052A000750A0000A1B7CAF4D0D43A20256325635B
:1052B0002563256325630A0A000000002DE9F04FED
:1052C00085B00746002015463860084601F0D4FA3C
:1052D000002815D4DFF82C82064608EB80004468CD
:1052E000F4B13C60207868B16078FEF743FDC107F7
:1052F00008D140070A21002D18BF01EAE0754AE0F5
:105300000B2548E0002066702070F0B2FEF7FFFC2D
:10531000C10707D145B110F0040005D00A253AE0D5
:105320000C2538E0032536E004F10A0560780221F7
:105330002A46FEF7FAFC68BB2888A0F50070B0F595
:10534000606F27D8204600210025FEF7F1F80128DC
:105350001DD101AE0020314640280AD0221892F813
:10536000F23113B1D2F8F62100E0002204C110306E
:10537000F2E7002756F827502DB120462946FEF7C0
:10538000D7F808B90BE002200137042FF2D130B171
:1053900003282FD10125284605B0BDE8F08F678985
:1053A000B4F83B00B84225D1B4F846B0BBF1000FC9
:1053B00008BFD4F854B094F84060C4F818B0721E16
:1053C000E670012A16D894F83D20531EB2FA82F1F5
:1053D000A27013404FEA511118BF0123194309D19C
:1053E000B4F841307909B3FBF1F7238107FB1131A0
:1053F000090401D00D25CEE7B4F843C0BCF1000F7D
:1054000008BFD4F850C0B4F83EE0BEF1000FF1D0B0
:105410000BFB06FA0AEB0E010F44BC45EAD3ACEBDA
:1054200007069642E6D37919B6FBF2F205EB0E07B2
:105430004FF00109A16240F6F571C4E9075702F186
:10544000020C8A424FF6F571C4F814C088BF4FF0C1
:1054500002098A424FF6F67188BF4FF003098A426B
:1054600006D3002BC6D1E16D4FEA8C0361620FE0D9
:10547000002BBFD007EB0A01B9F1020F61620FBF29
:105480004FEA4C030CEB4C010CF0010303EB51030E
:10549000C1180139B1FBF0F08345ABD34FF0FF30B9
:1054A000C4E90300802060714FF6F67082421FD37A
:1054B000B4F8600001281BD1691C204601F090FA65
:1054C000B0B900204AF655216071B4F82E02884226
:1054D0000ED1206B0C4988420AD1D4F814020B4932
:1054E000884205D1D4F81802D4F81C12C4E903107C
:1054F00084F800900025B8F800000130A8F80000FA
:10550000E08048E784080020525261417272416194
:1055100010B509A002F0D0F80D4C0C491420224619
:10552000FDF74CFF0B4914202246FDF7F7FE0AA0B9
:10553000BDE8104002F0C0B80A202D2D2D3E2044B9
:105540004D41BFAACABCD4CBD0D0200060B2000865
:105550009C180020043801402D2D2D3E20444D4143
:10556000D4CBD0D0CDEAB1CF20000000BCB5012013
:1055700001210125FDF750F802200D21FBF776FCF3
:105580004FF400606C468DF806500095ADF80400AD
:105590002046FBF703FA4FF440608DF80650ADF853
:1055A00004004FF4005000902046FBF7F7F900F09C
:1055B0009BFCBCBD70B50E4C2046FBF7B3FB0D4DFC
:1055C0000DA12846FBF7A8FA2846FFF7DFFD104E8D
:1055D0000DA128463246FBF72BFB3046FFF7D6FDE0
:1055E0002046FDF7EFFC2046BDE87040FBF784BA8B
:1055F000D5100208D810020857616E677169BCD3D4
:10560000D3CD210A00000000313A746573740000A4
:10561000E51002081CB5044600200190FDF708F8CB
:105620004FF48030FDF77CF8FDF7B8F80190019851
:10563000012823D11020FBF7E1F90220FBF7E8F95C
:105640000020FDF765F84FF48060FDF77FF800203B
:10565000FDF784F84FF480302146FDF78DF80120E6
:10566000FDF784F83920FDF73BF80028FAD0022036
:10567000FDF78AF8FDF746F80828FBD11CBD0000AD
:1056800080B50AA002F018F8FDF7F0FE0D48902151
:105690000722FCF72FF80C4890210722FBF764FD46
:1056A0000AA0BDE8804001F06FBB00BF0A2D2D3E6F
:1056B0004932435FBAAFCAFDD0B4C8EBBFAACABC77
:1056C0002000000030080020940800202D2D2D3EE1
:1056D0004932435FBAAFCAFDD0B4C8EBCDEAB1CF0F
:1056E0000A0D000080B50AA001F0E6FFFBF772FE8C
:1056F0000E4890210722FBF749FF0D489021072211
:10570000FBF772FE0BA0BDE8804001F03DBB00BF7F
:105710000A2D2D3E4932435FC8EDBCFEBAAFCAFD2B
:10572000D0B4C8EBBFAACABC2000000038080020D3
:10573000940800200A2D2D2D3E4932435FC8EDBC50
:10574000FEBAAFCAFDD0B4C8EBCDEAB1CF0A0D00A6
:105750001CB5044608460121ADF804208DF8073039
:10576000FCF75AFF01A92046FBF794FB1CBD000083
:1057700010B5094C0421012204232046FFF7E8FF5D
:1057800004F5006010214FF400520423FFF7E0FFFE
:1057900002480021418010BD00080140400800205F
:1057A000B0B5324C064D20212046A84720460121A5
:1057B000A847204602212A46BDE8B040104700BF56
:1057C000610F0008B0B50C460546032A05D0022A31
:1057D00008D0012A18BFB0BD0AE028462146FBF7D1
:1057E000B8FB28B128462146BDE8B040FBF7B6BB60
:1057F00028462146BDE8B040FBF7B2BB2DE9F04199
:1058000015A001F059FF194C194E1A4FDFF86880A6
:105810000225280408BFBDE8F081B04720462021BA
:10582000B8474FF4FA700221C047B0472046012123
:10583000B8474FF4FA700221C047B0472046022112
:10584000B8474FF4FA700221C047B04720462021E4
:10585000B847013DDDE700BF0A202D2D2D3E204C2D
:105860004544BFAACABCD4CBD0D02000000C014014
:10587000A15700085D0F0008FD600008BCB5054693
:1058800001201446ADF804208DF807308DF806008D
:1058900008460121FCF7C0FE01A92846FBF7FAFAE9
:1058A00028462146FBF75CFBBCBD00002DE9FE4FFE
:1058B0008F4A45F6A8404FF60C6190478D4800216D
:1058C00003888D48028807460020FBF7EDFF8B4DCB
:1058D00045F6A840A8473A88DFF824924FF0010A1D
:1058E000002000211923CDE900AAC84747F6CF3090
:1058F000A8473A880220834C1921192300900020E0
:10590000A0474CF67960A8473A8800201B211B234A
:10591000CDF800A0A0474FF6FF702646A84739886B
:10592000032413230094A1F114000F398AB280B22A
:105930001321B04739880C230094A1F119000A39CA
:105940008AB280B20C21B047398805230094A1F1B6
:105950001C0007398AB280B20521B047DFF8A8B130
:105960006A4E5846B0474EF63870A847684CA04774
:105970006D4A68A1002090475846B0470020A847CC
:10598000A047C088684A69A100EB400080B29047F8
:1059900045F6A840A8473888002441211E23CDE9B8
:1059A000004A143882B20A20C8474CF21360A84754
:1059B000388842211D23CDE900AA153882B20B2078
:1059C000C8475846B047DFF828814EF6387045F68C
:1059D000A841C04745F6A840A847B4206E2132220E
:1059E0001E23CDE900AAC8474FF6FF70A847B42090
:1059F0006E2132221E23CDE9004AC8475846B047DF
:105A00004FF44840A847DFF80891C847C088464A85
:105A10004BA100EBC00080B290474FF214504FF6FC
:105A20000C61C0474B4CD220B4210A220123CDF88F
:105A300000A0A04747F6CF30A847D220B4210A22C1
:105A40000023CDF800A0A04743F2FA504FF60C61B6
:105A5000C047D220CD210A220123CDF800A0A047C3
:105A600047F6CF30A847D220CD210A220023CDF817
:105A700000A0A0473848B0474BF6AA10A847C8472F
:105A8000C0883649284AC0EBC00080B2904743F234
:105A90006500A847C847C0883149234AC00080B282
:105AA00090474AF23450A8473A88164C0020E62125
:105AB000E623CDF800A0A0474BF6D720A847C8475B
:105AC000C0882849184A00EB8000400080B2904707
:105AD00042F25F30A847C847C088134A22A100EBB2
